:100000000C944A010C947B010C947B010C947B01B1
:100010000C947B010C947B010C947B010C947B0170
:100020000C947B010C945F060C945F060C945F06A5
:100030000C947B010C947B010C947B010C947B0150
:100040000C947B010C947B010C947B010C947B0140
:100050000C947B010C947B010C947B010C9419058E
:100060000C947B010C9435060C940B060C947B01CC
:100070000C947B010C947B010C947B010C947B0110
:100080000C947B010C947B010C947B010C947B0100
:100090000C947B010C947B010C947B010C947B01F0
:1000A0000C947B010C947B010C947B010C947B01E0
:1000B0000C947B010C947B010C947B010C947B01D0
:1000C0000C947B010C947B010C947B010C94E10556
:1000D0000C94B7050C947B010C948D050C9463056E
:1000E0000C947B010C940E020C9409070C94CE0125
:1000F0000C94A9010C9480030C9477020C949B013E
:100100000C94DC030C94C4010C94C0010C94D20137
:100110000C94BA040C9469040C94A1010C94BA01D7
:100120000C9467030C94C6090C94C8010C94B0019C
:100130000C94E0010C94D1020C94F4030C94DC01B7
:100140000C947F030C9463020C94B6010C949504F8
:100150000C94CF040C94D6010C941E030C948502CD
:100160000C9454020C94DB010C94A5010C94AD0189
:1001700000000A0B02090C0D0E0807030401000021
:10018000000000000000000000000000000000006F
:10019000000000000000000000000000121110002C
:1001A000000000000000000000000000000000004F
:1001B00000000000000000002000230026002900AD
:1001C0002C002F003200000100000301060109018C
:1001D00000002100240027002A002D0030003300F9
:1001E00001010000040107010A01000022002500AE
:1001F00028002B002E003100340002010000050110
:1002000008010B0105050505070508080808020295
:1002100002020A0A080804040404010101010101A0
:1002200001010303030303030303040707070C0C83
:100230000C0C0C0C0C0C020202020606060606064A
:1002400006060B0B0B0B0B0B0B0B010210202008EF
:100250000810204010204080020102010804020121
:100260000102040810204080804020100804020190
:1002700080040201804020100804020108040201E9
:100280000102040810204080010204081020408070
:100290000907C60911241FBECFEFD1E2DEBFCDBFD3
:1002A00000E00CBF24E0AEE4B2E001C01D92AE3E1F
:1002B000B207E1F712E0A0E0B2E0E2EFF8E100E01F
:1002C0000BBF02C007900D92AE34B107D9F711E011
:1002D000C9E4D1E000E006C021970109802FFE01AA
:1002E0000E94350AC834D10780E00807A9F70E94A8
:1002F000A7080C94670C0C9400008150823108F020
:100300005AC0E82FF0E08827E757FE4F8F4F0C9434
:10031000350AA901AD019B01A101A501DB01B001D5
:10032000B601BA01C001C401C801CE01D201DB018E
:10033000D601DC01E001809180008F7780938000FE
:100340000895809180008F7DF9CF80918000877F14
:10035000F5CF84B58F7784BD089584B58F7DFBCFAD
:100360008091B0008F778093B00008958091B000A5
:100370008F7DF9CF809190008F77809390000895C2
:10038000809190008F7DF9CF80919000877FF5CF8D
:100390008091A0008F778093A00008958091A000A5
:1003A0008F7DF9CF8091A000877FF5CF80912001CC
:1003B0008F77809320010895809120018F7DF9CF60
:1003C00080912001877FF5CFCF93DF93282F30E0F6
:1003D000F901E059FE4F8491F901E65BFD4FD4919C
:1003E000F901EC5FFD4FC491CC23A1F081110E9473
:1003F0007D01EC2FF0E0EE0FFF1FEA54FE4FA591B8
:10040000B491EC91ED2381E090E009F480E0DF917C
:10041000CF91089580E090E0FACF0895AF92BF9217
:10042000CF92DF92EF92FF920F931F93CF93DF93C0
:100430006C017B018B01040F151FEB015E01AE18EF
:10044000BF08C017D10759F06991D601ED91FC9111
:100450000190F081E02DC6011995892B79F7C5012E
:10046000DF91CF911F910F91FF90EF90DF90CF9090
:10047000BF90AF900895FC01A089B1898C91A689A5
:10048000B78982FD0FC09C91818D8F5F8F73228D04
:10049000821749F0A18DAE0FBF2FB11D5D969C93C1
:1004A000818F08958C910895FC01538D448D252FE3
:1004B00030E0842F90E0821B930B541710F0CF96FE
:1004C000089501970895FC01918D828D981761F030
:1004D000A28DAE0FBF2FB11D5D968C91928D9F5F47
:1004E0009F73928F90E008958FEF9FEF0895FC0126
:1004F000918D828D981731F0828DE80FF11D858DD9
:1005000090E008958FEF9FEF0895FC01918D228D6B
:10051000892F90E0805C9F4F821B91098F739927F0
:1005200008958BE992E00E94850221E0892B09F46D
:1005300020E0822F089588E393E00E94850221E065
:10054000892B09F420E0822F089585ED93E00E9425
:10055000850221E0892B09F420E0822F0895FC0117
:10056000A48DA80FB92FB11DA35ABF4F2C91848D14
:1005700090E001968F739927848FA689B7892C9371
:10058000A089B1898C91837080648C93938D848DC4
:10059000981306C00288F389E02D80818F7D8083C7
:1005A0000895EF92FF920F931F93CF93DF93EC0187
:1005B00081E0888F9B8D8C8D98131AC0E889F9890A
:1005C000808185FF15C09FB7F894EE89FF8960830D
:1005D000E889F98980818370806480839FBF81E08E
:1005E00090E0DF91CF911F910F91FF90EF900895D0
:1005F000F62E0B8D10E00F5F1F4F0F731127E02EAB
:100600008C8D8E110CC00FB607FCFACFE889F989E2
:10061000808185FFF5CFCE010E94AF02F1CFEB8D37
:10062000EC0FFD2FF11DE35AFF4FF0829FB7F894B6
:100630000B8FEA89FB8980818062CFCFCF93DF93D4
:10064000EC01888D8823B9F0AA89BB89E889F989EA
:100650008C9185FD03C0808186FD0DC00FB607FC1F
:10066000F7CF8C9185FFF2CF808185FFEDCFCE0152
:100670000E94AF02E9CFDF91CF91089580E090E032
:10068000892B29F00E94A50281110E94000080E0C0
:1006900090E0892B49F080E090E0892B29F00E94BE
:1006A000000081110E94000080E090E0892B29F079
:1006B0000E949B0281110E94000080E090E0892B43
:1006C00029F00E94910281110C940000089520915C
:1006D0009002309191022817390771F490918F029E
:1006E00080918E02981741F0E0918F02F0E0E25B7A
:1006F000FD4F808190E008958FEF9FEF089508955A
:10070000EF92FF920F931F93CF93DF93DC015C96E0
:10071000ED90FC905D97E114F10479F481E090E0B4
:1007200013969C938E93129790E080E0DF91CF9187
:100730001F910F91FF90EF9008955196ED91FC91CC
:10074000529750968C915097982F90950FB75E9630
:100750002C915E97122F127021FD6095F8942081E4
:10076000112319F1282B2083E7012197F1F728E0C5
:10077000462F50E0308160FF1AC0382B3083E701EC
:100780002197F1F7BA0175956795215089F71123E3
:1007900081F08081892380830FBF5C968D919C912D
:1007A0000197F1F781E090E0C1CF2923DCCF392315
:1007B000E5CF9081892BEFCF20919002309191026B
:1007C0002817390771F480918E0220918F0290E0F2
:1007D000805C9F4F821B910960E470E00E94210AB7
:1007E000089590E080E00895209190023091910268
:1007F00028173907B9F490918F0280918E029817CB
:1008000089F0E0918F02F0E0E25BFD4F8081209162
:100810008F0230E02F5F3F4F2F73332720938F02DB
:1008200090E008958FEF9FEF0895AF92BF92CF921F
:10083000DF92EF92FF920F931F93CF93DF93FC0110
:10084000E6A0F7A0F3E0EF1AF1086C0126E7C20E6C
:10085000D11CF60180810E94E401EC018FEF9FEF33
:10086000209761F58701000F111F000F111F055020
:100870001109B12CA12CF2E0EF16F10418F0C80117
:100880000197F1F7F60180810E94E4010A2C02C071
:10089000880F991F0A94E2F7C82BD92BFFEFAF1AE4
:1008A000BF0A28E0A216B10431F782E0E816F1048D
:1008B00018F0C8010197F1F7CE019927DF91CF9188
:1008C0001F910F91FF90EF90DF90CF90BF90AF906E
:1008D0000895CF93DF93FC0124A1222371F0EC0152
:1008E0000E94150488A799A79095991F9927991F89
:1008F000892F90E0DF91CF91089523A1222389F0E1
:1009000081A18F3031F48BE992E0DF91CF910C948B
:100910008502803119F485ED93E0F7CF88E393E009
:10092000F4CFDF91CF910C94DC03FC0184A18823E8
:1009300059F080A591A52FEF3FEF31A720A797FF92
:1009400018C0CF010C94150483A1882379F081A1EC
:100950008F3021F48BE992E00C946302803119F41A
:1009600085ED93E0F9CF88E393E0F6CFCF010C94C7
:10097000F4030895FC0123A1222379F081A18F3093
:1009800021F48BE992E00C94D102803119F485EDC9
:1009900093E0F9CF88E393E0F6CF0C94800390E0E6
:1009A00080E00895FC0180819181009711F00C9402
:1009B000ED0A0895EF92FF920F931F93CF93DF9369
:1009C000EC017B018A0188819981009729F02A81B5
:1009D0003B812417350788F4B8016F5F7F4F0E9471
:1009E000760B009791F0998388831B830A832C816F
:1009F0003D81232B11F4FC0110821D830C83B70170
:100A0000888199810E94600C0CC08881998100972F
:100A100011F00E94ED0A198218821D821C821B822D
:100A20001A82CE01DF91CF911F910F91FF90EF902D
:100A300008951F920F920FB60F9211242F933F9398
:100A40008F939F93AF93BF93809197029091980259
:100A5000A0919902B0919A023091960223E0230F5F
:100A60002D3758F50196A11DB11D20939602809354
:100A7000970290939802A0939902B0939A02809162
:100A8000920290919302A0919402B09195020196E6
:100A9000A11DB11D8093920290939302A0939402A2
:100AA000B0939502BF91AF919F918F913F912F91FC
:100AB0000F900FBE0F901F90189526E8230F0296F7
:100AC000A11DB11DD2CF1F920F920FB60F9211240C
:100AD0000BB60F922F933F934F935F936F937F9338
:100AE0008F939F93AF93BF93EF93FF938BE992E024
:100AF0000E94AF02FF91EF91BF91AF919F918F91B3
:100B00007F916F915F914F913F912F910F900BBE0D
:100B10000F900FBE0F901F9018951F920F920FB657
:100B20000F9211240BB60F922F933F934F935F9325
:100B30006F937F938F939F93AF93BF93EF93FF93A5
:100B40008BE992E00E943B02FF91EF91BF91AF9140
:100B50009F918F917F916F915F914F913F912F91D5
:100B60000F900BBE0F900FBE0F901F9018951F9205
:100B70000F920FB60F9211240BB60F922F933F9343
:100B80004F935F936F937F938F939F93AF93BF9395
:100B9000EF93FF9388E393E00E94AF02FF91EF9100
:100BA000BF91AF919F918F917F916F915F914F9185
:100BB0003F912F910F900BBE0F900FBE0F901F9083
:100BC00018951F920F920FB60F9211240BB60F9229
:100BD0002F933F934F935F936F937F938F939F9345
:100BE000AF93BF93EF93FF9388E393E00E943B02A0
:100BF000FF91EF91BF91AF919F918F917F916F91F5
:100C00005F914F913F912F910F900BBE0F900FBEB0
:100C10000F901F9018951F920F920FB60F921124EC
:100C20000BB60F922F933F934F935F936F937F93E6
:100C30008F939F93AF93BF93EF93FF9385ED93E0D3
:100C40000E94AF02FF91EF91BF91AF919F918F9161
:100C50007F916F915F914F913F912F910F900BBEBC
:100C60000F900FBE0F901F9018951F920F920FB606
:100C70000F9211240BB60F922F933F934F935F93D4
:100C80006F937F938F939F93AF93BF93EF93FF9354
:100C900085ED93E00E943B02FF91EF91BF91AF91F0
:100CA0009F918F917F916F915F914F913F912F9184
:100CB0000F900BBE0F900FBE0F901F9018951F92B4
:100CC0000F920FB60F9211240BB60F922F933F93F2
:100CD0004F935F936F937F938F939F93AF93BF9344
:100CE000EF93FF93E0919002F0919102309749F0D9
:100CF000A685B7858585968D91FF16C09C91892321
:100D0000B1F4FF91EF91BF91AF919F918F917F913E
:100D10006F915F914F913F912F910F900BBE0F906C
:100D20000FBE0F901F9018959C91892351F7A389AE
:100D3000B4899C918589809589238C93868997892C
:100D40000197F1F7608D718DA685B785558538E0DF
:100D500020E0CB010197F1F7822F90E095958795E0
:100D6000282F4C91452309F02068315091F7868D4A
:100D700081FD209580918E0290E001968F739927D6
:100D800030918F02381799F0A0918E02B0E0A25BEB
:100D9000BD4F2C9380938E02828D938D0197F1F736
:100DA000A389B4898C919589892B8C93AACF868D40
:100DB0008160868FF1CF1F93CF93DF93282F30E090
:100DC000F901E059FE4F8491F901E65BFD4FD491A2
:100DD000F901EC5FFD4FC491CC23A9F0162F8111CE
:100DE0000E947D01EC2FF0E0EE0FFF1FE651FE4F59
:100DF000A591B4918FB7F894EC91111108C0D095DA
:100E0000DE23DC938FBFDF91CF911F910895DE2BFE
:100E1000F8CF0F931F93CF93DF9310929E021092FF
:100E20009D0288EE93E0A0E0B0E080939F02909353
:100E3000A002A093A102B093A2022AE032E0309374
:100E40009C0220939B0245E351E05093A8024093FB
:100E5000A70244E351E05093AA024093A90240E361
:100E600051E05093AC024093AB0241E351E0509308
:100E7000AE024093AD0242E351E05093B002409382
:100E8000AF0246E351E05093B2024093B102109298
:100E9000B4021092B5021092B6021092B7021092EC
:100EA0003B0310923A0380933C0390933D03A0933D
:100EB0003E03B0933F03309339032093380345ED4D
:100EC00050E0509345034093440344ED50E0509369
:100ED00047034093460340ED50E05093490340934D
:100EE000480341ED50E050934B0340934A0342EDD9
:100EF00050E050934D0340934C0346ED50E0509327
:100F00004F0340934E0310925103109252031092DC
:100F10005303109254031092D8031092D703809376
:100F2000D9039093DA03A093DB03B093DC033093EF
:100F3000D6032093D50325EC30E03093E2032093D1
:100F4000E10324EC30E03093E4032093E30320EC4E
:100F500030E03093E6032093E50321EC30E030935A
:100F6000E8032093E70322EC30E03093EA03209378
:100F7000E90326EC30E03093EC032093EB0310926E
:100F8000EE031092EF031092F0031092F10310920F
:100F900091041092920425E020939304109275041A
:100FA000109274048093760490937704A09378044D
:100FB000B09379048CE192E090937304809372046F
:100FC000109289041092880410928B0410928A0463
:100FD00010928D0410928C0410928F0410928E0443
:100FE000609190046E7F6D7F609390046695617050
:100FF00081E0682780E00E94DB060AE412E0F80145
:101000002491C4E0D2E0FE018491882399F090E01D
:10101000880F991FFC01E053FE4FA591B491FC018C
:10102000E651FE4F859194918FB7F8949C91292BAE
:101030002C938FBFF801849180938204FE018491E8
:10104000E82FF0E0EE0FFF1FE651FE4F85919491DF
:101050009093840480938304F8012491FE01849189
:101060008823C9F090E0880F991FFC01E053FE4FE0
:10107000A591B491FC01E651FE4F459154913FB7C3
:10108000F8949C91822F809598239C93FA019081EB
:10109000892380833FBF8091900481FD04C061E07B
:1010A00080E00E94DB0610927E04F8010491009318
:1010B0007F04FE01C491EC2FF0E0EE0FFF1FEA5415
:1010C000FE4F8591949190938104809380048EE2E9
:1010D00092E090937304809372041092E104109252
:1010E000E0041092E3041092E2041092E5041092DE
:1010F000E40450E040E06CE472E080EE94E00E9492
:10110000DA041092970410929604809192048093CE
:10111000E804809191048093E9042091930491EF75
:10112000920F81E0923008F080E091E0253009F0E4
:1011300090E0892B809395048EE292E09093730463
:1011400080937204DF91CF911F910F910895CF93F7
:10115000DF93CDB7DEB76E970FB6F894DEBF0FBE44
:10116000CDBF789484B5826084BD84B5816084BD30
:1011700085B5826085BD85B5816085BD80916E0035
:10118000816080936E001092810080918100826066
:1011900080938100809181008160809381008091A3
:1011A00080008160809380008091B1008460809392
:1011B000B1008091B00081608093B0008091910077
:1011C0008260809391008091910081608093910072
:1011D000809190008160809390008091A100826056
:1011E0008093A1008091A10081608093A1008091F3
:1011F000A00081608093A000809121018260809393
:101200002101809121018160809321018091200141
:1012100081608093200180917A00846080937A00BD
:1012200080917A00826080937A0080917A00816058
:1012300080937A0080917A00806880937A0010927F
:10124000C100E091E503F091E60382E08083E09144
:10125000E103F091E2031082E091E303F091E403F3
:1012600080E180831092ED03E091E903F091EA03BD
:1012700086E08083E091E703F091E803808180615C
:101280008083E091E703F091E803808188608083A8
:10129000E091E703F091E803808180688083E0912A
:1012A000E703F091E80380818F7D808340E150E087
:1012B0006CE372E085ED93E00E940E028E010F5FF9
:1012C0001F4F1A8E198E1C8E1B8E1E8E1D8E50E087
:1012D00040E06CE472E0CE0149960E94DA0485EDAC
:1012E00093E00E948502892BB9F185ED93E00E947D
:1012F00063021C8A1B8A1E8A1D8A188E1F8A4AE076
:10130000B8010E94EC09F80101900020E9F731973B
:10131000AF01401B510BB801CE0143960E94DA0485
:10132000898D9A8D009709F16B897C89611571050A
:10133000D1F04B8D5C8D2F89388D4217530798F073
:101340000E94600C8F89988D9E8F8D8F188E1F8ABA
:10135000CE0143960E94D204CE0149960E94D20447
:101360000E943E03AECF0E94ED0A8B899C899A8F22
:10137000898F8D899E899C8F8B8F8F89988D9E8F69
:101380008D8F1C8A1B8A1E8A1D8AE0CF8EE292E016
:10139000909373048093720480EE94E00E94D204D0
:1013A0008CE192E090937304809372048091900298
:1013B000909191028257944071F4E0918504F091EC
:1013C0008604908180918704809589238083109280
:1013D0009102109290020895BB274A3031F499236C
:1013E00022F4BDE2909581959F4F0C94F809BB279C
:1013F000FB015527AA27880F991FAA1FA41710F0D1
:10140000A41B83955051B9F7A05DAA3308F0A95DDC
:10141000A193009779F7B111B1931192CB010C947C
:10142000110ADC01FC01672F71917723E1F73297F4
:1014300004C07C916D9370836291AE17BF07C8F3AF
:10144000089597FB072E16F4009407D077FD09D076
:101450000E943D0A07FC05D03EF4909581959F4F70
:101460000895709561957F4F0895EE0FFF1F881FB7
:101470008BBF0790F691E02D1994AA1BBB1B51E17D
:1014800007C0AA1FBB1FA617B70710F0A61BB70BF4
:10149000881F991F5A95A9F780959095BC01CD0199
:1014A00008950F931F93CF93DF938230910510F42B
:1014B00082E090E0E091EC04F091ED0430E020E077
:1014C000B0E0A0E0309799F42115310509F44AC045
:1014D000281B390B24303105D8F58A819B81611591
:1014E000710589F1FB0193838283FE0111C0408164
:1014F00051810281138148175907E0F048175907B5
:1015000099F4109761F012960C93129713961C930E
:101510003296CF01DF91CF911F910F9108950093E3
:10152000EC041093ED04F4CF2115310551F042176E
:10153000530738F0A901DB019A01BD01DF01F80171
:10154000C1CFEF01F9CF9093ED048093EC04CDCFA0
:10155000FE01E20FF31F81939193225031093983E9
:101560002883D7CF2091EA043091EB04232B41F458
:1015700020910202309103023093EB042093EA049D
:1015800020910002309101022115310541F42DB75F
:101590003EB74091040250910502241B350BE091A7
:1015A000EA04F091EB04E217F307A0F42E1B3F0BC3
:1015B0002817390778F0AC014E5F5F4F24173507C5
:1015C00048F04E0F5F1F5093EB044093EA04819361
:1015D00091939FCFF0E0E0E09CCFCF93DF93009713
:1015E000E9F0FC01329713821282A091EC04B091D1
:1015F000ED04ED0130E020E01097A1F4208131816D
:10160000820F931F2091EA043091EB0428173907C9
:1016100009F061C0F093EB04E093EA04DF91CF910D
:101620000895EA01CE17DF07E8F54A815B819E0144
:1016300041155105B1F7E901FB83EA8349915991BD
:10164000C40FD51FEC17FD0761F4808191810296CC
:10165000840F951FE90199838883828193819B83FD
:101660008A83F0E0E0E012968D919C9113970097A9
:10167000B9F52D913C911197CD010296820F931FE0
:101680002091EA043091EB042817390739F6309796
:1016900051F51092ED041092EC04B093EB04A0937A
:1016A000EA04BCCFD383C28340815181840F951F4C
:1016B000C817D90761F44E5F5F4F88819981480F41
:1016C000591F518340838A819B8193838283211593
:1016D000310509F0B0CFF093ED04E093EC049ECF18
:1016E000FD01DC01C0CF13821282D7CF4F925F92EF
:1016F0006F927F928F929F92AF92BF92CF92DF9222
:10170000EF92FF920F931F93CF93DF938C0100977B
:1017100099F4CB01DF91CF911F910F91FF90EF9042
:10172000DF90CF90BF90AF909F908F907F906F9001
:101730005F904F900C94510AFC01E60FF71F9C013B
:1017400022503109E217F30708F4AEC0D901CD9158
:10175000DC911197C617D70720F1C530D10578F075
:10176000CE0104978617970750F0C61BD70B229718
:10177000C193D1936D937C93CF010E94ED0AC80170
:10178000DF91CF911F910F91FF90EF90DF90CF905D
:10179000BF90AF909F908F907F906F905F904F9091
:1017A00008955B01AC1ABD0A4C018C0E9D1EA091E0
:1017B000EC04B091ED04512C412CF12CE12C10974C
:1017C00031F58091EA049091EB048815990509F0B0
:1017D0005CC04616570608F058C0809100029091F0
:1017E0000102009741F48DB79EB7409104025091D9
:1017F0000502841B950BE817F90708F055C0F09314
:10180000EB04E093EA04F90171836083B8CF8D9112
:101810009C91119712966C90129713967C90139747
:10182000A815B90559F56C0142E0C40ED11CCA14C3
:10183000DB0420F1AC014A195B09DA011296159715
:1018400080F06282738251834083D9016D937C93CF
:10185000E114F10471F0D7011396FC93EE93129703
:101860008ECF22968C0F9D1FF90191838083F30107
:10187000EFCFF093ED04E093EC0481CF48165906C6
:1018800008F42C017D01D3019ACFCB010E94510AAB
:101890007C01009749F0AE01B8010E94570CC801C5
:1018A0000E94ED0A87016BCF10E000E068CFFB01DA
:1018B000DC0102C001900D9241505040D8F70895CC
:1018C000FB01DC0101900D920020E1F7089511E089
:1018D000C9E4D1E000E006C0802FFE010E94350A75
:1018E0002196011DCA34D10780E00807A9F7F894B2
:0218F000FFCF28
:1018F2000000EE04800000000000D1020E0254023B
:101902001E038502630277020000000080030E02BC
:10191200CF047F03DC03F403670300000000BA0472
:101922000E02CF047F03690495046703426C756558
:0E193200746F6F74682053746172742100002A
:00000001FF
